:100000000C942A000C943F000C943F000C943F0089
:100010000C943F000C943F000C943F000C943F0064
:100020000C943F000C943F000C943F000C943F0054
:100030000C943F000C943F000C943F000C943F0044
:100040000C943F000C943F000C943F000C943F0034
:100050000C943F0011241FBECFE5D4E0DEBFCDBF1E
:1000600010E0A0E6B0E0E2ECFFE002C005900D92E7
:10007000A039B107D9F70E9436020C94DF070C941F
:100080000000CF93DF93CDB7DEB7A0970FB6F894FB
:10009000DEBF0FBECDBF80E1E0E6F0E0DE011196ED
:1000A00001900D928A95E1F780E1E0E7F0E0DE0152
:1000B000519601900D928A95E1F75FE040EF0FC0F5
:1000C0002191321308C002C080E090E0FE01E80FE9
:1000D000F91F81811DC001968031910589F751BBBF
:1000E00042BB8DE08A95F1F7000030B341BB52BBB3
:1000F0008DE08A95F1F7000080B3382B3F3F79F30C
:100100008989381709F3FE01729681E090E0D8CF13
:10011000A0960FB6F894DEBF0FBECDBFDF91CF9192
:10012000089588BBDF9ADE9A85E08A95F1F7000092
:10013000DE9887EC90E00197F1F700C00000089589
:1001400088BBDF98DE9A82E08A95F1F700C0DE98DE
:100150008FE697E10197F1F700C00000089588E36A
:100160000E94A00081E00E94A00086E00E94A00002
:100170008EE00E94A0000895CF93DF93EC01888168
:10018000882331F021960E94910089918111FBCF43
:10019000DF91CF9108958FE19EE40197F1F700C0C0
:1001A000000081E00E94A0009AE19A95F1F700C05A
:1001B00008958FE19EE40197F1F700C0000082E00E
:1001C0000E94A0008FE99FE00197F1F700C00000B6
:1001D00008950F931F93CF93DF93082FC62F0E948C
:1001E000D900C11112C010E01016110604F5C0E0CC
:1001F000D0E084E10E94A00085E88A95F1F7000034
:100200002196C017D107A9F712C0C13081F410E0C0
:10021000085D1F4FC0E0D0E084E10E94A00085E8A7
:100220008A95F1F700002196C017D107ACF3DF9152
:10023000CF911F910F9108952F923F924F925F920D
:100240006F927F928F929F92AF92BF92CF92DF92E6
:10025000EF92FF920F931F93CF93DF93CDB7DEB74B
:100260006A970FB6F894DEBF0FBECDBF4B015C019D
:1002700020E030E0A9010E94CD05811104C080E397
:100280000E949100DAC020E030E0A901C501B4016C
:100290000E94CD0588230CF0A6C0B7FAB094B7F839
:1002A000B09422242394A0C020E030E040E251E446
:1002B000C301B2010E9431072B013C01D501159603
:1002C0003C920E944406605DF50161935F0170E01D
:1002D00080E090E00E947C069B01AC01C301B2016A
:1002E0000E94600520E030E040E452E40E94610595
:1002F0002B013C01A016B106B9F680E001501109AE
:10030000F8019081903361F42181203349F42281F6
:10031000203331F42381203319F42481203351F028
:10032000E1E0F0E0EC0FFD1FE80FF11D87FDFA950D
:1003300090838F5F8016910609F7FE01E80FF11D8B
:1003400087FDFA959EE2918311E0180F01C010E03D
:10035000C114D104E104F10419F10F2EFAE04F2E7B
:10036000512C612C712CF02DAA24A394B12CAC0E2D
:10037000BD1EA10EB11C17FDBA94C701B601A301A1
:1003800092010E949E07605DD5016C93C22ED32E10
:10039000E42EF52E1F5FC114D104E104F10421F70E
:1003A000B1E02B1208C0FE01E10FF11D17FDFA9517
:1003B0008DE281831F5F11500AF43FC0E1E0F0E05D
:1003C000EC0FFD1FE10FF11D17FDFA9580810E94D2
:1003D00091001150EFECF7E03197F1F700C0000009
:1003E000112364F72AC0212CC501B4010E944406E0
:1003F0006B01770FEE08FF08C701B6010E947C066B
:100400009B01AC01C501B4010E9460052B013C01B8
:1004100020E030E0A9010E942C0718160CF097CFBD
:100420004E01F1E18F0E911C8E010A5E1F4F5401A7
:100430000F2EF0E33F2EF02D37CF6A960FB6F894CB
:10044000DEBF0FBECDBFDF91CF911F910F91FF9007
:10045000EF90DF90CF90BF90AF909F908F907F9064
:100460006F905F904F903F902F900895CF93DF93C0
:10047000CDB7DEB7C658D1090FB6F894DEBF0FBEB0
:10048000CDBF8FEF87BB8ABB0E94AF000E94CB001D
:100490002FEF82E597E0215080409040E1F700C0C7
:1004A000000080E890E00E94BC00FE0131962F0120
:1004B000212C312CCD57DF4F2882C358D040CC5748
:1004C000DF4F3882C458D040F0E8CB57DF4FF88375
:1004D000C558D0402FE3CA57DF4F2883C658D040B5
:1004E000F20120E411922A95E9F70E944100182FA9
:1004F0000E94CB008FEF92E5E7E081509040E04012
:10050000E1F700C00000112359F300E00E94410010
:10051000182F0E949100612F70E060537109072E1F
:10052000000C880B990B0E947C06E1E4F0E0EC0FD4
:10053000FD1F24E0029FE00DF11D112460837183F3
:100540008283938320E030E048E951E40E94CD05A6
:1005500081111BC0FF24FA94F00E60E08F2D0E94E1
:10056000E90080E20E94910080E20E94910060E038
:100570008F2D0E94E90002508FEF90E7E2E081505A
:100580009040E040E1F700C00000FFE728E381E091
:10059000F15020408040E1F700C000000F5F9FEF66
:1005A000E3ECF9E09150E040F040E1F700C00000DA
:1005B0001D3309F0ABCF2596CCACDDACEEACFFAC77
:1005C000259720E030E040E551E4C701B6010E94E4
:1005D000CD05882309F4EEC0A12C922C832C6894BD
:1005E000772477F80F2EFFE36F2EF02DB12C1A2D04
:1005F000CB57DF4FA880C558D040CA57DF4F08817E
:10060000C658D04020E030E040E050E0C701B601DD
:100610000E942C0788230CF468C020E030E040E101
:1006200051E4C701B6010E94CD0518160CF45DC057
:10063000CD57DF4F2881C358D040CC57DF4F38818A
:10064000C458D0404A2D502F692D782D872D962DD6
:100650000E94CD05882309F4FFC120E030E040E28C
:1006600051E4692D782D872D962D0E94CD05882384
:1006700009F4CCC1C201E4E01E9F800D911D11243C
:10068000CF57DF4F99838883C158D040A701960187
:10069000692D782D872D962D0E9431079B01AC0185
:1006A000CF57DF4FE881F981C158D0406081718117
:1006B000828193810E946105CF57DF4FE881F981E4
:1006C000C158D04060837183828393832DEC3CECCE
:1006D0004CEC5DE3692D782D872D962D0E94310716
:1006E000962E872E782E692E44C020E030E040E020
:1006F00050ECC701B6010E94CD05882351F181E07D
:10070000810FF20124E0829FE00DF11D1124C082CF
:10071000D182E282F38282E0810FF20194E0899F2C
:10072000E00DF11D1124822D932DA0E8BFE38083FD
:100730009183A283B3831D5FCD57DF4F9880C35849
:10074000D040CC57DF4F8880C458D0407A2C602EE0
:1007500010C00F2EFDEC9F2EF02D0F2EFCEC8F2ED7
:10076000F02D0F2EFCEC7F2EF02D0F2EFDE36F2EC3
:10077000F02DB394EFE1FEE43197F1F700C00000F3
:10078000E1E4F0E0EC0FFD1F24E0B29EE00DF11D6E
:100790001124C080D180E280F38020E030E040E589
:1007A00051E4C701B6010E94CD0581112BCF612E06
:1007B000712C02C0612C712CC12CD12CB12CA12C1C
:1007C000912C812C8FEC97E00197F1F700C000008D
:1007D000F601EE0FFF1FEE0FFF1FE40DF51DF08079
:1007E000E1800281138120E030E040EC50EC6F2D7D
:1007F0007E2D802F912F0E94CD0581112DC0F601F5
:100800003196EE0FFF1FEE0FFF1FE40DF51D222D99
:10081000332D40E85FE360817181828193810E9482
:10082000CD058111C4C092E0C90ED11CF601EE0FB6
:10083000FF1FEE0FFF1FE40DF51D20813181428166
:1008400053816B2D7A2D892D982D0E943107B62E5C
:10085000A72E982E892EC3C020E030E040EA50EC4D
:100860006F2D7E2D802F912F0E94CD0581112DC0DF
:10087000F6013196EE0FFF1FEE0FFF1FE40DF51D81
:10088000222D332D40E85FE3608171818281938165
:100890000E94CD05811190C0E2E0CE0ED11CF60180
:1008A000EE0FFF1FEE0FFF1FE40DF51D20813181BC
:1008B000428153816B2D7A2D892D982D0E946105DF
:1008C000B62EA72E982E892E8AC020E030E040E474
:1008D00050EC6F2D7E2D802F912F0E94CD05811120
:1008E0002DC0F6013196EE0FFF1FEE0FFF1FE40D36
:1008F000F51D222D332D40E85FE3608171818281F7
:1009000093810E94CD0581115CC0F2E0CF0ED11C15
:10091000F601EE0FFF1FEE0FFF1FE40DF51D208106
:100920003181428153816B2D7A2D892D982D0E9422
:100930006005B62EA72E982E892E51C020E030E0FB
:1009400040E85FEB6F2D7E2D802F912F0E94CD050B
:1009500081113CC0F6013196EE0FFF1FEE0FFF1F15
:10096000E40DF51D222D332D40E85FE36081718198
:10097000828193810E94CD0581112DC022E0C20E9B
:10098000D11CF601EE0FFF1FEE0FFF1FE40DF51D4A
:1009900020813181428153816B2D7A2D892D982DB3
:1009A0000E94D205B62EA72E982E892E18C0BF2CD5
:1009B000AE2C902E812E13C0BF2CAE2C902E812EEB
:1009C0000EC0BF2CAE2C902E812E09C0BF2CAE2C99
:1009D000902E812E04C0BF2CAE2C902E812E8FEF36
:1009E000C81AD80A6C147D040CF0ECCE6B2D7A2D4D
:1009F000892D982D0E941C019FEFE9E6F8E19150A6
:100A0000E040F040E1F700C000006ACDC201E4E040
:100A10001E9F800D911D1124CF57DF4F998388832E
:100A2000C158D040FC012081318142815381692D20
:100A3000782D872D962D0E943107A70196010E94DF
:100A40006105CF57DF4FE881F981C158D0406083FD
:100A50007183828393838DCEC201E4E01E9F800D5B
:100A6000911D1124CF57DF4F99838883C158D040FF
:100A7000FC012081318142815381692D782D872DA0
:100A8000962D0E943107A70196010E946105CF575C
:100A9000DF4FE881F981C158D04060837183828340
:100AA000938320E030E040E251E4692D782D872DDA
:100AB000962D0E943107962E872E782E692E59CEBC
:100AC0005058BB27AA270E9478050C94F2060E9472
:100AD000E40638F00E94EB0620F039F49F3F19F449
:100AE00026F40C94E1060EF4E095E7FB0C94DB068B
:100AF000E92F0E94030758F3BA17620773078407A8
:100B0000950720F079F4A6F50C9425070EF4E095EE
:100B10000B2EBA2FA02D0B01B90190010C01CA01B7
:100B2000A0011124FF27591B99F0593F50F4503E62
:100B300068F11A16F040A22F232F342F4427585F54
:100B4000F3CF469537952795A795F0405395C9F76C
:100B50007EF41F16BA0B620B730B840BBAF0915024
:100B6000A1F0FF0FBB1F661F771F881FC2F70EC0C3
:100B7000BA0F621F731F841F48F487957795679596
:100B8000B795F7959E3F08F0B0CF9395880F08F082
:100B90009927EE0F9795879508950E94B70608F458
:100BA00081E008950E94E6050C94F2060E94EB068F
:100BB00058F00E94E40640F029F45F3F29F00C94BD
:100BC000DB0651110C9426070C94E1060E940307E2
:100BD00068F39923B1F3552391F3951B550BBB276C
:100BE000AA2762177307840738F09F5F5F4F220FB1
:100BF000331F441FAA1FA9F335D00E2E3AF0E0E8A8
:100C000032D091505040E695001CCAF72BD0FE2FF1
:100C100029D0660F771F881FBB1F26173707480785
:100C2000AB07B0E809F0BB0B802DBF01FF2793583D
:100C30005F4F3AF09E3F510578F00C94DB060C9420
:100C400026075F3FE4F3983ED4F386957795679542
:100C5000B795F7959F5FC9F7880F911D9695879572
:100C600097F90895E1E0660F771F881FBB1F621791
:100C700073078407BA0720F0621B730B840BBA0B4F
:100C8000EE1F88F7E09508950E944B066894B11115
:100C90000C94260708950E940B0788F09F5798F040
:100CA000B92F9927B751B0F0E1F0660F771F881F71
:100CB000991F1AF0BA95C9F714C0B13091F00E948B
:100CC0002507B1E008950C942507672F782F882712
:100CD000B85F39F0B93FCCF3869577956795B395B2
:100CE000D9F73EF490958095709561957F4F8F4F21
:100CF0009F4F0895E89409C097FB3EF49095809526
:100D0000709561957F4F8F4F9F4F9923A9F0F92FD1
:100D100096E9BB279395F695879577956795B7954F
:100D2000F111F8CFFAF4BB0F11F460FF1BC06F5F35
:100D30007F4F8F4F9F4F16C0882311F096E911C047
:100D4000772321F09EE8872F762F05C0662371F068
:100D500096E8862F70E060E02AF09A95660F771F7C
:100D6000881FDAF7880F9695879597F90895990F58
:100D70000008550FAA0BE0E8FEEF16161706E80765
:100D8000F907C0F012161306E407F50798F0621B86
:100D9000730B840B950B39F40A2661F0232B242B5B
:100DA000252B21F408950A2609F4A140A6958FEF7A
:100DB000811D811D089597F99F6780E870E060E0CC
:100DC00008959FEF80EC089500240A9416161706E4
:100DD00018060906089500240A941216130614062C
:100DE00005060895092E0394000C11F4882352F08F
:100DF000BB0F40F4BF2B11F460FF04C06F5F7F4F47
:100E00008F4F9F4F089557FD9058440F551F59F02D
:100E10005F3F71F04795880F97FB991F61F09F3FE7
:100E200079F087950895121613061406551FF2CF10
:100E30004695F1DF08C0161617061806991FF1CF60
:100E400086957105610508940895E894BB27662787
:100E50007727CB0197F908950E94B70608F48FEF22
:100E600008950E9444070C94F2060E94E40638F0AC
:100E70000E94EB0620F0952311F00C94DB060C94F5
:100E8000E10611240C9426070E94030770F3959F36
:100E9000C1F3950F50E0551F629FF001729FBB2771
:100EA000F00DB11D639FAA27F00DB11DAA1F649F0D
:100EB0006627B00DA11D661F829F2227B00DA11DC0
:100EC000621F739FB00DA11D621F839FA00D611D46
:100ED000221F749F3327A00D611D231F849F600D67
:100EE000211D822F762F6A2F11249F5750409AF090
:100EF000F1F088234AF0EE0FFF1FBB1F661F771F1C
:100F0000881F91505040A9F79E3F510580F00C94E6
:100F1000DB060C9426075F3FE4F3983ED4F38695F6
:100F200077956795B795F795E7959F5FC1F7FE2B86
:100F3000880F911D9695879597F90895052E97FB33
:100F40001EF400940E94B50757FD07D00E94BD070C
:100F500007FC03D04EF40C94B5075095409530959E
:100F600021953F4F4F4F5F4F089590958095709515
:100F700061957F4F8F4F9F4F0895A1E21A2EAA1BB4
:100F8000BB1BFD010DC0AA1FBB1FEE1FFF1FA21739
:100F9000B307E407F50720F0A21BB30BE40BF50B36
:100FA000661F771F881F991F1A9469F760957095BF
:100FB000809590959B01AC01BD01CF010895F894F7
:020FC000FFCF61
:100FC20031343743323538303336392E2B2D2A3DE2
:100FD200EEEDEBE7DEDDDBD7BEBDBBB77E7D7B771B
:100FE200507265737320616E79206B657920000001
:00000001FF
